:100000000C9434000C9451000C9451000C94510049
:100010000C9451000C9451000C9451000C9451001C
:100020000C9451000C9451000C9451000C9451000C
:100030000C9451000C9451000C94AE010C9451009E
:100040000C9451000C9451000C9451000C945100EC
:100050000C9451000C9451000C9451000C945100DC
:100060000C9451000C94510011241FBECFEFD8E026
:10007000DEBFCDBF11E0A0E0B1E0E4E1FFE102C0EE
:1000800005900D92A236B107D9F715E0A2E6B1E0CE
:1000900001C01D92A835B107E1F70E94090B0C942D
:1000A000880F0C940000DC01CB010097A105B1057D
:1000B00041F025E02A95F1F700000197A109B10967
:1000C000C1F70895DC01CB010097A105B10551F0FE
:1000D000EFE9FFE03197F1F700C000000197A109B7
:1000E000B109B1F70895833491F08434F1F082348A
:1000F00049F544B121E030E0B90102C0660F771F35
:100100009A95E2F7CB018095842384B9089547B18D
:1001100021E030E0B90102C0660F771F9A95E2F73F
:10012000CB018095842387B908954AB121E030E05E
:10013000B90102C0660F771F9A95E2F7CB0180954F
:1001400084238AB90895833489F08434E1F08234B9
:1001500031F544B121E030E0B90102C0660F771FEC
:100160009A95E2F7CB01842B84B9089547B121E039
:1001700030E0B90102C0660F771F9A95E2F7CB0114
:10018000842B87B908954AB121E030E0B90102C05B
:10019000660F771F9A95E2F7CB01842B8AB90895F1
:1001A000833489F08434E1F0823431F545B121E0C3
:1001B00030E0B90102C0660F771F9A95E2F7CB01D4
:1001C000842B85B9089548B121E030E0B90102C01F
:1001D000660F771F9A95E2F7CB01842B88B90895B3
:1001E0004BB121E030E0B90102C0660F771F9A954C
:1001F000E2F7CB01842B8BB90895833491F08434DA
:10020000F1F0823449F545B121E030E0B90102C096
:10021000660F771F9A95E2F7CB018095842385B905
:10022000089548B121E030E0B90102C0660F771FA0
:100230009A95E2F7CB018095842388B908954BB154
:1002400021E030E0B90102C0660F771F9A95E2F70E
:10025000CB01809584238BB90895833489F084344D
:10026000E1F0823431F545B121E030E0B90102C05E
:10027000660F771F9A95E2F7CB01842785B9089519
:1002800048B121E030E0B90102C0660F771F9A95AE
:10029000E2F7CB01842788B908954BB121E030E023
:1002A000B90102C0660F771F9A95E2F7CB01842748
:1002B0008BB90895833479F08434C1F0823411F518
:1002C00085B161E070E0AB0102C0440F551F9A9503
:1002D000E2F78423089588B141E050E09A0102C01A
:1002E000220F331F9A95E2F7822308954BB121E044
:1002F00030E0B90102C0660F771F9A95E2F7CB0193
:10030000842308958FEF0895833479F08434C1F005
:10031000823411F583B161E070E0AB0102C0440F9B
:10032000551F9A95E2F78423089586B141E050E085
:100330009A0102C0220F331F9A95E2F78223089593
:1003400049B121E030E0B90102C0660F771F9A95EC
:10035000E2F7CB01842308958FEF08951F920F9247
:100360000FB60F9211248F939F93AF93BF938091F9
:10037000660190916701A0916801B09169010296B0
:10038000A11DB11D8093660190936701A093680140
:10039000B09369018091620190916301A091640121
:1003A000B09165010296A11DB11D809362019093E9
:1003B0006301A0936401B0936501BF91AF919F91D8
:1003C0008F910F900FBE0F901F9018950E94640C94
:1003D00080E060E00E94520C80E091E00E94CF0D2E
:1003E00080E06DE00E94520C8EE20E946C0C81E075
:1003F00060E00E94520C86E091E00E94CF0D82E006
:1004000060E00E94520C8CE091E00E94CF0D82E0EF
:100410006DE00E94520C8EE20E946C0C83E060E062
:100420000E94520C85E191E00E94CF0D80E008957A
:1004300080E069E00E94520C60916A0170916B014A
:1004400080E090E044E00E947F0C80E0089580E02E
:100450006EE00E94520C60916C0170E080E090E0D0
:100460000E943E0D80E0089580E060E10E94520C01
:1004700080912B01813051F0813018F0823079F475
:100480000AC08CE191E00E94CF0D09C081E291E0A9
:100490000E94CF0D04C086E291E00E94CF0D80E063
:1004A000089581E069E00E94520C60916D0170E056
:1004B0006F5F7F4F882777FD8095982F43E00E94DC
:1004C0007F0C80E00895CF92DF92EF92FF92CF935E
:1004D000DF9382E069E00E94520CC0E7D1E0809196
:1004E0006D0190E0880F991FFC01EE0FFF1FEE0FCA
:1004F000FF1F8E0F9F1FFE01E80FF91F6681778196
:10050000808591850F2EF8EECF2EF3E0DF2EF0E000
:10051000EF2EF0E0FF2EF02DA70196010E94230F91
:10052000CA01B90144E00E947F0C82E06EE00E94A3
:10053000520C80916D0190E0880F991F9C01220F51
:10054000331F220F331F820F931FC80FD91F6E81D5
:100550007F8188859985A70196010E94230F43E03A
:100560000E947F0C80E0DF91CF91FF90EF90DF90B1
:10057000CF90089583E069E00E94520C8091600161
:10058000909161010E949A0E682F70E080E090E0E7
:100590000E943E0D80915E0190915F010E949A0E33
:1005A000682F70E080E090E00E943E0D80915C0139
:1005B00090915D010E949A0E682F70E080E090E0BB
:1005C0000E943E0D80915A0190915B010E949A0E0B
:1005D000682F70E080E090E00E943E0D809158010D
:1005E000909159010E949A0E682F70E080E090E08F
:1005F0000E943E0D80915601909157010E949A0EE3
:10060000682F70E080E090E00E943E0D80E0089549
:1006100085B58E7F85BD85B58D7F85BD85B58B7F85
:1006200085BD809160019091610160E00E94870E1C
:1006300080915E0190915F0160E00E94870E809141
:100640005C0190915D0160E00E94870E80915A01EB
:1006500090915B0160E00E94870E8091580190911B
:10066000590160E00E94870E8091560190915701D8
:1006700060E00E94870E0E94BA028091540190911E
:10068000550160E00E94870E81E080932B010E945B
:10069000340208950E94E6010E9418020E94270277
:1006A0000E9434020E9451020E9463020E94BA0218
:1006B00080E00895CF93DF93C0E0D0E0CE01880FB3
:1006C000991F9E01220F331F220F331F220F331F4A
:1006D000820F931FBC016050704080599E4F4AE0CA
:1006E00050E00E94600F2196C436D10539F780E0B2
:1006F000DF91CF910895EEE6F0E080818260808303
:1007000084B5826084BD8CE787BD0E945A030E9435
:100710004A0380E00895CF93DF93C0E7D1E0E091F2
:100720006D01F0E0CF01880F991FFC01EE0FFF1F54
:10073000EE0FFF1FE80FF91FEC0FFD1F8091600106
:100740009091610160810E94870EE0916D01F0E05F
:10075000CF01880F991FFC01EE0FFF1FEE0FFF1F47
:10076000E80FF91FEC0FFD1F80915E0190915F0172
:1007700061810E94870EE0916D01F0E0CF01880F4A
:10078000991FFC01EE0FFF1FEE0FFF1FE80FF91F6F
:10079000EC0FFD1F80915C0190915D0162810E94D0
:1007A000870EE0916D01F0E0CF01880F991FFC01E9
:1007B000EE0FFF1FEE0FFF1FE80FF91FEC0FFD1FDD
:1007C00080915A0190915B0163810E94870EE091B4
:1007D0006D01F0E0CF01880F991FFC01EE0FFF1FA4
:1007E000EE0FFF1FE80FF91FEC0FFD1F809158015E
:1007F0009091590164810E94870E80916D0190E073
:10080000880F991F9C01220F331F220F331F820F65
:10081000931FC80FD91F80915601909157016D8188
:100820000E94870E80E0DF91CF9108952F923F9232
:100830004F925F926F927F928F929F92AF92BF92F0
:10084000CF92DF92EF92FF921F93CF93DF9310929C
:10085000660110926701109268011092690110926E
:100860006B0110926A0110926C010E9418020E94A2
:10087000270210922B010E94340280915401909122
:1008800055010E94910E85B5846085BD10926D0161
:100890008091760190917701A0917801B0917901D2
:1008A0000097A105B105C1F4C5C08E2F90E0880F57
:1008B000991F9C01220F331F220F331F820F931F9A
:1008C000F501E80FF91F86819781A085B185009712
:1008D000A105B105D1F4AEC022243324C0E00F2E0F
:1008E000F0E7AF2EF1E0BF2EF02D0F2EF6E38F2EA6
:1008F000F1E09F2EF02D0F2EF4E64F2EF0E05F2E4C
:10090000F0E06F2EF0E07F2EF02D10926201109239
:10091000630110926401109265010E948B03809123
:100920006D0190E0880F991F9C01220F331F220F49
:10093000331F820F931FF501E80FF91F86819781FE
:10094000A085B18584369105A105B10548F00E94C6
:1009500051020E9463020E94BA0202C01E01C12F0E
:100960000E94350B8816990619F40E94080364C08A
:10097000E0916D018E2F90E0880F991F9C01220F4E
:10098000331F220F331F820F931FD501A80FB91FEA
:1009900016968D919D910D90BC91A02D4091620174
:1009A0005091630160916401709165014817590786
:1009B0006A077B07C8F584369105A105B10580F269
:1009C000C0906601D0906701E0906801F0906901E5
:1009D000C701B601A30192010E94230FCA01B90108
:1009E0002AE030E040E050E00E94230F162F609391
:1009F0006C01C701B60128EE33E040E050E00E94F0
:100A0000230F30936B0120936A011C1711F00E9491
:100A10002702C0916A01D0916B01C215D30509F478
:100A20009DCF0E9418029ACFEF5FE0936D01E436EC
:100A300008F43BCF0E94080380E0DF91CF911F9123
:100A4000FF90EF90DF90CF90BF90AF909F908F90EE
:100A50007F906F905F904F903F902F9008952091DE
:100A60006D01233618F5822F90E00196FC01EE0F00
:100A7000FF1F880F991F880F991F880F991FE80F74
:100A8000F91FE059FE4F86819781A085B1850097B7
:100A9000A105B10559F02F5F20936D010E948B03D2
:100AA0000E9451020E9463020E94BA0280E00895EF
:100AB00080916D01882359F0815080936D010E94CF
:100AC0008B030E9451020E9463020E94BA0280E0DE
:100AD000089580E060E00E94520C86E091E00E9460
:100AE000CF0D81E060E00E94520C8CE091E00E940A
:100AF000CF0D81E06DE00E94520C8EE20E946C0CE2
:100B000082E060E00E94520C85E191E00E94CF0DEE
:100B100080E0089580E069E00E94520C60916D01D0
:100B200070E06F5F7F4F882777FD8095982F43E0B7
:100B30000E947F0C80E00895CF92DF92EF92FF92A7
:100B4000CF93DF9381E069E00E94520CC0E7D1E0CF
:100B500080916D0190E0880F991FFC01EE0FFF1F3F
:100B6000EE0FFF1F8E0F9F1FFE01E80FF91F66811A
:100B70007781808591850F2EF8EECF2EF3E0DF2E62
:100B8000F0E0EF2EF0E0FF2EF02DA70196010E947D
:100B9000230FCA01B90144E00E947F0C81E06EE09E
:100BA0000E94520C80916D0190E0880F991F9C016A
:100BB000220F331F220F331F820F931FC80FD91F1D
:100BC0006E817F8188859985A70196010E94230FF8
:100BD00043E00E947F0C80E0DF91CF91FF90EF9087
:100BE000DF90CF900895CF93DF9382E069E00E9479
:100BF000520CC0E7D1E080916D0190E0880F991F01
:100C0000FC01EE0FFF1FEE0FFF1F8E0F9F1FFE0157
:100C1000E80FF91F608170E080E090E00E943E0DD7
:100C200080916D0190E0880F991FFC01EE0FFF1F6E
:100C3000EE0FFF1F8E0F9F1FFE01E80FF91F61814E
:100C400070E080E090E00E943E0D80916D0190E0A8
:100C5000880F991FFC01EE0FFF1FEE0FFF1F8E0F75
:100C60009F1FFE01E80FF91F628170E080E090E0B5
:100C70000E943E0D80916D0190E0880F991FFC014C
:100C8000EE0FFF1FEE0FFF1F8E0F9F1FFE01E80FDD
:100C9000F91F638170E080E090E00E943E0D80913A
:100CA0006D0190E0880F991FFC01EE0FFF1FEE0F02
:100CB000FF1F8E0F9F1FFE01E80FF91F648170E078
:100CC00080E090E00E943E0D80916D0190E0880FE1
:100CD000991F9C01220F331F220F331F820F931F76
:100CE000C80FD91F6D8170E080E090E00E943E0D3A
:100CF00080E0DF91CF910895FC018081841718F482
:100D00008F5F808301C0608380E00895863009F49E
:100D100041C0873078F4823049F1833030F4882341
:100D2000D9F0813009F058C01CC0843049F18530B9
:100D300060F521C08930E9F18A3030F4873079F1EB
:100D4000883009F049C030C08B30E9F18B30B0F108
:100D50008C3009F041C03CC081E069E00E94520C37
:100D60003BC081E06AE00E94520C36C081E06BE03B
:100D70000E94520C31C081E06CE00E94520C2CC0E9
:100D800081E06EE00E94520C27C081E06FE00E947B
:100D9000520C22C081E060E10E94520C1DC082E032
:100DA00069E00E94520C18C082E06AE00E94520C76
:100DB00013C082E06BE00E94520C0EC082E06CE037
:100DC0000E94520C09C082E06DE00E94520C04C0E7
:100DD00082E06EE00E94520C80E008956F927F9254
:100DE0008F929F92AF92BF92CF92DF92EF92FF923B
:100DF0000F931F93CF93DF93CDB7DEB72D970FB629
:100E0000F894DEBF0FBECDBF00916D010F2EF0E74D
:100E10006F2EF1E07F2EF02D802F90E0880F991F2C
:100E20009C01220F331F220F331F820F931FF301E8
:100E3000E80FF91F86809780A084B184C501B401B2
:100E400020E432E44FE050E00E94230F0F2EFAE03E
:100E5000CF2EF0E0DF2EF0E0EF2EF0E0FF2EF02DB1
:100E6000CA01B901A70196010E94230F6983C50138
:100E7000B40120EA36E841E050E00E94230FCA01A5
:100E8000B901A70196010E94230F6A83C501B4012D
:100E900020E137E240E050E00E94230FCA01B9018F
:100EA000A70196010E94230F6B83C501B40128EEB0
:100EB00033E040E050E00E94230FCA01B901A701CE
:100EC00096010E94230F6C83C501B40124E630E033
:100ED00040E050E00E94230FCA01B901A70196012A
:100EE0000E94230F6D83C501B401A70196010E94E2
:100EF000230F862ECA01B901A70196010E94230F74
:100F00006E838F82802F90E0880F991F9C01220FA3
:100F1000331F220F331F820F931FF301E80FF91FB6
:100F200080818887802F90E0880F991F9C01220F75
:100F3000331F220F331F820F931FF301E80FF91F96
:100F400081818987802F90E0880F991F9C01220F53
:100F5000331F220F331F820F931FF301E80FF91F76
:100F600082818A87802F90E0880F991F9C01220F31
:100F7000331F220F331F820F931FF301E80FF91F56
:100F800083818B87802F90E0880F991F9C01220F0F
:100F9000331F220F331F820F931FF301E80FF91F36
:100FA00084818C87802F90E0880F991F9C01220FED
:100FB000331F220F331F820F931F680E791EF30118
:100FC00085818D878EE00E94360C80E00E94860627
:100FD000BB2404E311E00F2EFEE2CF2EF1E0DF2E62
:100FE000F02D0F2EF0E38F2EF1E09F2EF02D0F2E1F
:100FF000F2E3EF2EF1E0FF2EF02D0E94350B80176B
:10100000910709F443C18C159D0571F420916E017F
:1010100030916F012130310539F4BB2071F3BA945E
:101020008B2D0E948606E9CF8815990579F42091C9
:101030006E0130916F012130310541F4FBE0FB1569
:10104000E0F2B3948B2D0E948606D7CF8E159F05B4
:10105000A1F680916E0190916F018130910569F642
:1010600086E0B81609F498C08B15A8F0E2E0BE1629
:1010700009F44EC0EB1538F0BB2041F1F1E0BF168A
:1010800009F000C134C084E0B81609F463C08B15C0
:1010900008F471C04EC0E9E0BE1609F4B0C0EB150B
:1010A00048F0F7E0BF1609F488C088E0B81609F0E8
:1010B000E9C094C0EBE0BE1609F4C3C0BE1608F444
:1010C000AFC0FCE0BF1609F0DDC0CCC0CE01019678
:1010D00060E049E00E947C0681E069E00E94520CD9
:1010E000698170E080E090E00E943E0DCBC0CE01AF
:1010F000029660E049E00E947C0681E06AE00E947E
:10110000520C6A8170E080E090E00E943E0DBAC00F
:10111000CE01039660E049E00E947C0681E06BE02E
:101120000E94520C6B8170E080E090E00E943E0DC6
:10113000A9C0CE01049660E049E00E947C0681E0EF
:101140006CE00E94520C6C8170E080E090E00E94A4
:101150003E0D98C0CE01059660E049E00E947C06F5
:1011600081E06EE00E94520C6D8170E080E090E0C2
:101170000E943E0D87C0CE01069660E049E00E94C5
:101180007C0681E06FE00E94520C6E8170E080E08E
:1011900090E00E943E0D76C0CE01079660E049E0E7
:1011A0000E947C0681E060E10E94520C6F8170E039
:1011B00080E090E00E943E0D65C0CE01089660E0A0
:1011C00041E00E947C0682E069E00E94520C688542
:1011D00070E080E090E00E943E0D54C0CE01099680
:1011E00060E041E00E947C0682E06AE00E94520CCE
:1011F000698570E080E090E00E943E0D43C0CE0122
:101200000A9660E041E00E947C0682E06BE00E946A
:10121000520C6A8570E080E090E00E943E0D32C082
:10122000CE010B9660E041E00E947C0682E06CE01B
:101230000E94520C6B8570E080E090E00E943E0DB1
:1012400021C0CE010C9660E041E00E947C0682E065
:101250006DE00E94520C6C8570E080E090E00E948E
:101260003E0D10C0CE010D9660E041E00E947C066C
:1012700082E06EE00E94520C6D8570E080E090E0AC
:101280000E943E0D8B2D0E948606B7CE00916D0107
:101290000F2EF0E78F2EF1E09F2EF02D802F90E0A3
:1012A000880F991F9C01220F331F220F331F820FBB
:1012B000931F3401680E791E698170E080E090E030
:1012C00020E432E44FE050E00E94040F6B017C0107
:1012D0006A8170E080E090E020EA36E841E050E08A
:1012E0000E94040FC60ED71EE81EF91E8F81C80E7D
:1012F000D11CE11CF11C6C8170E080E090E028EED4
:1013000033E040E050E00E94040FDC01CB01C80E46
:10131000D91EEA1EFB1E6B8170E080E090E020E1A8
:1013200037E240E050E00E94040FDC01CB01C80E20
:10133000D91EEA1EFB1E6E8170E080E090E02AE07C
:1013400030E040E050E00E94040FDC01CB01C80E09
:10135000D91EEA1EFB1E6D8170E080E090E024E65D
:1013600030E040E050E00E94040FC60ED71EE81E99
:10137000F91EF301C682D782E086F186802F90E0C5
:10138000880F991F9C01220F331F220F331F820FDA
:10139000931FF401E80FF91F88858083802F90E068
:1013A000880F991F9C01220F331F220F331F820FBA
:1013B000931FF401E80FF91F89858183802F90E046
:1013C000880F991F9C01220F331F220F331F820F9A
:1013D000931FF401E80FF91F8A858283802F90E024
:1013E000880F991F9C01220F331F220F331F820F7A
:1013F000931FF401E80FF91F8B858383802F90E002
:10140000880F991F9C01220F331F220F331F820F59
:10141000931FF401E80FF91F8C858483802F90E0DF
:10142000880F991F9C01220F331F220F331F820F39
:10143000931F880E991E8D85F4018583802F90E07F
:101440009C01220F331FC901880F991F880F991F14
:10145000820F931F602F70E09B01220F331FB90191
:10146000660F771F660F771F620F731F6050704003
:1014700080599E4F4AE050E00E94700F8CE00E941D
:10148000360C80E02D960FB6F894DEBF0FBECDBFB0
:10149000DF91CF911F910F91FF90EF90DF90CF9050
:1014A000BF90AF909F908F907F906F900895CF9254
:1014B000DF92EF92FF920F931F93CF93DF930E94DF
:1014C000640C0E9469050E948A050E949C050E9486
:1014D000F305C4E3D1E00EE211E00F2EF0E3EF2EAE
:1014E000F1E0FF2EF02D0F2EF2E3CF2EF1E0DF2EF4
:1014F000F02D0E94350B9C018C179D0741F48091C3
:101500006E0190916F018130910509F43FC0201761
:101510003107A9F480916E0190916F01813091059E
:1015200071F480916D01882321F3815080936D01C6
:101530000E948A050E949C050E94F305DACF2E15B1
:101540003F05A9F480916E0190916F018130910562
:1015500071F480916D01833660F68F5F80936D0129
:101560000E948A050E949C050E94F305C2CF2C159B
:101570003D0509F0BECF80916E0190916F018130E1
:10158000910509F0B6CF0E94EE06B3CF0E944A0340
:1015900080E0DF91CF911F910F91FF90EF90DF904E
:1015A000CF9008950E94560E0E940F0B0E94A20E2B
:1015B0000E947B03789480E008950E94350B21E01F
:1015C0008833920719F40E941604089521E08233AB
:1015D000920719F40E94570A089521E08E3292076B
:1015E00051F420916E0130916F012130310519F4D1
:1015F0000E945805089521E08033920749F48091B4
:101600006E0190916F018130910511F40E942F05B8
:1016100008950E94D20A0E94DD0AFDCF08958091AC
:101620003801909139010E947300809136019091A8
:1016300037010E94730080913401909135010E941E
:10164000730080913201909133010E947300809168
:101650003001909131010E94730080912E01909190
:101660002F010E94730080E00895CF93DF93809153
:101670003801909139010E948401882319F0CAE34E
:10168000D1E002C0C8E3D1E08091360190913701EA
:101690000E948401882311F4C6E3D1E080913401D3
:1016A000909135010E948401882311F4C4E3D1E0B4
:1016B00080913201909133010E948401882311F4BA
:1016C000C2E3D1E080913001909131010E94840108
:1016D000882311F4C0E3D1E080912E0190912F0175
:1016E0000E948401882329F081E0CA33D80719F4C5
:1016F00019C0CEE2D1E080912C0190912D01C81744
:10170000D90751F480916E0190916F0101969093E9
:101710006F0180936E0106C081E090E090936F01AD
:1017200080936E01D0932D01C0932C018C2F9D2F9F
:10173000DF91CF910895CF93C82F88233CF48091F7
:101740004A0190914B010E94D00006C080914A014D
:1017500090914B010E94FD00C6FF07C08091480197
:10176000909149010E94D00006C08091480190915B
:1017700049010E94FD00C5FF07C08091460190917C
:1017800047010E94D00006C0809146019091470118
:101790000E94FD00C4FF07C0809144019091450163
:1017A0000E94D00006C080914401909145010E94A2
:1017B000FD00CF910895CF93DF93C82F83FF07C01B
:1017C00080914A0190914B010E94D00006C0809107
:1017D0004A0190914B010E94FD00C2FF07C0809119
:1017E0004801909149010E94D00006C080914801B3
:1017F000909149010E94FD00C1FF07C08091460100
:10180000909147010E94D00006C0809146019091BE
:1018100047010E94FD00C0FF07C0809144019091E4
:1018200045010E94D00006C080914401909145017D
:101830000E94FD00DF91CF91089580914C0190911D
:101840004D010E94D0008FE99FE00197F1F700C0A1
:10185000000080914C0190914D010E94FD008FE9A4
:101860009FE00197F1F700C000000895CF93C82FC3
:101870000E949B0B0E941D0C8C2F0E94DB0B0E9470
:101880001D0CCF910895CF93C82F0E949B0B0E94EF
:101890001D0C0E941D0C8C2F0E94DB0B0E941D0C46
:1018A000CF910895823031F0833031F0813031F0C2
:1018B00080E005C084E103C084E501C080E4860FB8
:1018C00080680E94360C089581E00E94360C0895CD
:1018D00082E00E94360C0895CF93C82F80914E016C
:1018E00090914F010E94D0008C2F0E94360C809165
:1018F0004E0190914F010E94FD00CF9108958F926B
:101900009F92AF92BF92CF92DF92EF92FF926B01C4
:101910007C01443009F45BC0453050F4423009F496
:101920007EC0433008F067C0413009F09EC091C0CE
:10193000463029F14630B8F1473069F0483009F0B7
:1019400094C020E836E948E950E00E94230F822F36
:10195000805D0E946C0CC701B60120E432E44FE0C8
:1019600050E00E94230FCA01B9012AE030E040E0B4
:1019700050E00E94230F862F805D0E946C0CC701EF
:10198000B60120EA36E841E050E00E94230FCA0188
:10199000B9012AE030E040E050E00E94230F862F9A
:1019A000805D0E946C0CC701B60120E137E240E087
:1019B00050E00E94230FCA01B9012AE030E040E064
:1019C00050E00E94230F862F805D0E946C0CC7019F
:1019D000B60128EE33E040E050E00E94230FCA0138
:1019E000B9012AE030E040E050E00E94230F862F4A
:1019F000805D0E946C0CC701B60124E630E040E037
:101A000050E00E94230FCA01B9012AE030E040E013
:101A100050E00E94230F862F805D0E946C0C0F2ED9
:101A2000FAE08F2EF0E09F2EF0E0AF2EF0E0BF2E18
:101A3000F02DC701B601A50194010E94230FCA0130
:101A4000B901A50194010E94230F862F805D0E9499
:101A50006C0CC701B6012AE030E040E050E00E9483
:101A6000230F862F805D0E946C0CFF90EF90DF901B
:101A7000CF90BF90AF909F908F9008954F925F92BC
:101A80006F927F928F929F92AF92BF92CF92DF928E
:101A9000EF92FF920F931F932B013C0199235CF46B
:101AA0008DE20E946C0C7094609450944094411CA0
:101AB000511C611C711C8AE04816510461047104B8
:101AC0000CF45AC0CC24DD247601C394C701B601BE
:101AD0002AE030E040E050E00E94040F6B017C01FE
:101AE000C301B201A70196010E94450F89019A0125
:101AF0000A301105210531054CF7802F805D0E94C9
:101B00006C0CC701B6012AE030E040E050E00E94D2
:101B1000450F69017A01211531054105510581F112
:101B20000F2EFAE08F2EF0E09F2EF0E0AF2EF0E0C7
:101B3000BF2EF02DC701B601A50194010E94040F2C
:101B40009B01AC01C301B2010E94450FA7019601A0
:101B50000E94450F822F805D0E946C0CC701B60168
:101B6000A50194010E94450F69017A0121153105F3
:101B700041055105F9F604C0842D805D0E946C0C6E
:101B80001F910F91FF90EF90DF90CF90BF90AF909B
:101B90009F908F907F906F905F904F900895EF92FD
:101BA000FF920F931F93CF93DF938C01FC018081F1
:101BB0008823D1F0E80121960F2EFEE4EF2EF1E00C
:101BC000FF2EF02DF701808191810E94D000F80155
:101BD00081918F010E94360CF701808191810E94D2
:101BE000FD008991882371F7DF91CF911F910F91AB
:101BF000FF90EF9008950F931F93CF93DF93082FDB
:101C0000192F660F660F660F85E00E94520C8091B7
:101C10004E0190914F010E94D000C02FD12F10E0B3
:101C200089910E94360C1F5F1830D1F780914E01C8
:101C300090914F010E94FD00DF91CF911F910F9174
:101C400008951F93CF93DF93C62F142FD22F0E9496
:101C5000FB0D812F6D2F0E94520C8C2F0E946C0C5B
:101C6000DF91CF911F91089580E10E94360C80E2B0
:101C70000E946C0C80E10E94360C08958C3331F088
:101C80008E3339F484E10E94360C089580E10E947D
:101C9000360C08958C3331F08E3339F48CE10E9488
:101CA000360C089588E10E94360C089580914E010B
:101CB00090914F010E94A30080914C0190914D01A1
:101CC0000E94A30080914401909145010E94A300CD
:101CD00080914601909147010E94A30080914801A4
:101CE000909149010E94A30080914A0190914B017B
:101CF0000E94A3008CE20E94430C8CE00E94360CF0
:101D000086E00E94360C0E94640C81E008956623F0
:101D100029F0613029F40E94D00008950E94FD004E
:101D200008950E94D00008950E94FD0008950E9429
:101D30002D0108950E945A0191E0882309F490E052
:101D4000892F089580916001909161010E94FD00AA
:101D500080915E0190915F010E94FD0080915C0185
:101D600090915D010E94FD0080915A0190915B016C
:101D70000E94FD0080915801909159010E94FD0040
:101D800080915601909157010E94FD00809154016D
:101D9000909155010E94FD00809152019091530154
:101DA0000E94FD0080916001909161010E94A3005A
:101DB00080915E0190915F010E94A30080915C017F
:101DC00090915D010E94A30080915A0190915B0166
:101DD0000E94A30080915801909159010E94A30094
:101DE00080915601909157010E94A3008091540167
:101DF000909155010E94A30080915201909153014E
:101E00000E94A30081E00895629FD001739FF001BA
:101E1000829FE00DF11D649FE00DF11D929FF00D7A
:101E2000839FF00D749FF00D659FF00D9927729FB1
:101E3000B00DE11DF91F639FB00DE11DF91FBD013C
:101E4000CF0111240895A1E21A2EAA1BBB1BFD018C
:101E50000DC0AA1FBB1FEE1FFF1FA217B307E40789
:101E6000F50720F0A21BB30BE40BF50B661F771FE1
:101E7000881F991F1A9469F76095709580959095C1
:101E80009B01AC01BD01CF01089597FB092E0526EA
:101E90000ED057FD04D0D7DF0AD0001C38F450957F
:101EA0004095309521953F4F4F4F5F4F0895F6F77E
:101EB00090958095709561957F4F8F4F9F4F0895B6
:101EC000DC01CB01FC01F999FECF06C0F2BDE1BDFA
:101ED000F89A319600B40D9241505040B8F70895E9
:101EE000DC01CB0103C02D910E947B0F415050407B
:101EF000D0F70895262FF999FECF1FBA92BD81BD64
:101F000020BD0FB6F894FA9AF99A0FBE019608957B
:041F1000F894FFCF73
:101F140054494D453A00535445503A0053542E54B5
:101F2400494D453A0052454C41593A002052554ECC
:101F34000053544F50005741495400013A0142059F
:101F440042044203420242014200FFFFFFFFFFFF3F
:101F5400FFFFFFFF430343024301430043044305E0
:101F6400FFFF440744064405440444034402440177
:021F7400440027
:00000001FF
